:1000000009C016C015C014C013C012C011C010C062
:100010000FC00EC011241FBECFE9CDBF10E0A0E677
:10002000B0E001C01D92A436B107E1F720D034C082
:10003000E7CF399A86B1856886B90895369A349B98
:10004000FDCF24B145B1942F80E030E0822B932B7B
:1000500090936100809360008091600090916100B6
:100060009695879596958795815086BF08958FB50B
:1000700081688FBD83B7816083BF16BE19BC12BE75
:1000800019BE789483E188BB81E087BB399A86B139
:0C009000856886B9D3DFFECFF894FFCF5F
:00000001FF
